:020000040000FA
:1000000000020400000000002A0300002A03000090
:100010002A0300002A0300002A0300002A0300002C
:100020002A0300002A0300002A0300002A0300001C
:100030002A030000140300002A0300002A03000022
:100040002A0300002A0300002A0300002A030000FC
:100050002A0300002A0300002A0300002A030000EC
:100060002A0300002A0300002A0300002A030000DC
:100070002A0300002A0300002A0300002A030000CC
:100080002A0300002A0300002A0300002A030000BC
:100090002A0300002A0300002A0300002A030000AC
:1000A0002A0300002A0300002A0300002A0300009C
:1000B0002A0300002A0300002A0300002A0300008C
:1000C0002A0300002A0300002A0300002A0300007C
:1000D0002A0300002A0300002A0300002A0300006C
:1000E0002A0300002A0300002A0300002A0300005C
:1000F0002A0300002A0300002A0300002A0300004C
:100100002A0300002A0300002A0300002A0300003B
:100110002A0300002A0300002A0300002A0300002B
:100120002A0300002A0300002A0300002A0300001B
:100130002A0300002A0300002A0300002A0300000B
:100140002A0300002A0300002A0300002A030000FB
:100150002A0300002A0300002A0300002A030000EB
:100160002A0300002A0300002A0300002A030000DB
:100170002A0300002A0300002A0300002A030000CB
:100180002A0300002A0300002A0300002A030000BB
:100190002A0300002A0300002A0300002A030000AB
:1001A0002A0300002A0300002A0300002A0300009B
:1001B0002A0300002A0300002A0300002A0300008B
:1001C0002A0300002A0300002A0300002A0300007B
:1001D0002A0300002A0300002A0300002A0300006B
:1001E0002A0300002A0300002A0300002A0300005B
:1001F0002A0300002A0300002A0300002A0300004B
:10020000FFFFFF00FFFFFF002A0300002A0300009A
:100210002A0300002A0300002A0300002A0300002A
:100220002A0300002A0300002A0300002A0300001A
:100230002A030000140300002A0300002A03000020
:100240002A0300002A0300002A0300002A030000FA
:100250002A0300002A0300002A0300002A030000EA
:100260002A0300002A0300002A0300002A030000DA
:100270002A0300002A0300002A0300002A030000CA
:100280002A0300002A0300002A0300002A030000BA
:100290002A0300002A0300002A0300002A030000AA
:1002A0002A0300002A0300002A0300002A0300009A
:1002B0002A0300002A0300002A0300002A0300008A
:1002C0002A0300002A0300002A0300002A0300007A
:1002D0002A0300002A0300002A0300002A0300006A
:1002E0002A0300002A0300002A0300002A0300005A
:1002F0002A0300002A0300002A0300002A0300004A
:100300002A0300002A0300002A0300002A03000039
:100310002A0300002A0300002A0300002A03000029
:100320002A0300002A0300002A0300002A03000019
:100330002A0300002A0300002A0300002A03000009
:100340002A0300002A0300002A0300002A030000F9
:100350002A0300002A0300002A0300002A030000E9
:100360002A0300002A0300002A0300002A030000D9
:100370002A0300002A0300002A0300002A030000C9
:100380002A0300002A0300002A0300002A030000B9
:100390002A0300002A0300002A0300002A030000A9
:1003A0002A0300002A0300002A0300002A03000099
:1003B0002A0300002A0300002A0300002A03000089
:1003C0002A0300002A0300002A0300002A03000079
:1003D0002A0300002A0300002A0300002A03000069
:1003E0002A0300002A0300002A0300002A03000059
:1003F0002A0300002A0300002A0300002A03000049
:100400000F802000807F2200000188000000000093
:10041000050007000C000700800202000000000039
:100420000040DA000000FE004440A9000000200067
:100430000000E0000300320000002000A00188005E
:100440004440A80000000600803220000100200087
:100450001600370062004000E080480091018800EB
:100460009001BA0062004000E080480091018800DD
:100470009002BA0062004000E08048000002EB00F9
:100480006028E10005003A008301E900070033001D
:10049000038009000059EB00040037006128E100E7
:1004A000010032000082EB00050007009101880086
:1004B0001001BA000200E000E6FF3A00000005006B
:1004C000910188008002780062004000E0804800CE
:1004D0003559BA008301E900080032002559BA00F5
:1004E0008301E900050032000400E000F4FF32005F
:1004F00015D9BA008301E900F1FF3A0000000600B7
:100500000200FA00517420009140780080CFB300BF
:1005100000C0600045E7B700416A200091407800C4
:1005200000CEB30000C060009040B300A4E6B70066
:10053000816C20009140780000CEB30000C06000C4
:100540003040B300C8E6B700F00F2000E017880085
:100550000000EB00601688000000EB0040168800E9
:100560000000EB000008880090D0230010088800ED
:100570008460A9009460A800000328002008880077
:100580000030200040168800F0052000401188004F
:10059000000028000011880000442000101188008D
:1005A0008560A9000000370085C0BF00684060007A
:1005B0000004E000FCFF320030118000000F7800E2
:1005C00023C2BF00614060000004E000FCFF320075
:1005D000200220002011880023C2BF00614060007B
:1005E0000004E000FCFF32001E00780020118800AB
:1005F00023C2BF00614060000004E000FCFF320045
:10060000200220002011880023C2BF00614060004A
:100610000004E000FCFF32000002200020118800EE
:100620008560A900E0FF3700809FBE000000FA004F
:100630008460A9006016800001002F00010068009E
:10064000601688000080FA004F00BE0000400600DF
:0C065000000000000000FE00FFFFFF00A3
:020000040001F9
:0857F800E9FB00007F3F000007
:00000001FF
